{
  "contractName": "MnemonicVault",
  "abi": [
    {
      "constant": false,
      "inputs": [
        {
          "name": "_name",
          "type": "string"
        },
        {
          "name": "_key",
          "type": "string"
        },
        {
          "name": "_issuerName",
          "type": "string"
        },
        {
          "name": "_expirationTime",
          "type": "uint256"
        },
        {
          "name": "_offchainUrl",
          "type": "string"
        }
      ],
      "name": "addDocument",
      "outputs": [],
      "payable": false,
      "stateMutability": "nonpayable",
      "type": "function"
    },
    {
      "constant": true,
      "inputs": [
        {
          "name": "_id",
          "type": "uint256"
        }
      ],
      "name": "getDocument",
      "outputs": [
        {
          "name": "_name",
          "type": "string"
        },
        {
          "name": "_key",
          "type": "string"
        },
        {
          "name": "_issuer",
          "type": "address"
        },
        {
          "name": "_issuerName",
          "type": "string"
        },
        {
          "name": "_issueTime",
          "type": "uint256"
        },
        {
          "name": "_expirationTime",
          "type": "uint256"
        },
        {
          "name": "_offchainUrl",
          "type": "string"
        }
      ],
      "payable": false,
      "stateMutability": "view",
      "type": "function"
    },
    {
      "constant": true,
      "inputs": [
        {
          "name": "_key",
          "type": "string"
        }
      ],
      "name": "retrieveDocument",
      "outputs": [
        {
          "name": "_id",
          "type": "uint256"
        },
        {
          "name": "_name",
          "type": "string"
        },
        {
          "name": "_issuer",
          "type": "address"
        },
        {
          "name": "_issuerName",
          "type": "string"
        },
        {
          "name": "_issueTime",
          "type": "uint256"
        },
        {
          "name": "_expirationTime",
          "type": "uint256"
        },
        {
          "name": "_offchainUrl",
          "type": "string"
        }
      ],
      "payable": false,
      "stateMutability": "view",
      "type": "function"
    },
    {
      "constant": false,
      "inputs": [
        {
          "name": "_issuer",
          "type": "address"
        },
        {
          "name": "_key",
          "type": "string"
        },
        {
          "name": "_requestorName",
          "type": "string"
        }
      ],
      "name": "grant",
      "outputs": [],
      "payable": false,
      "stateMutability": "nonpayable",
      "type": "function"
    },
    {
      "constant": true,
      "inputs": [],
      "name": "owner",
      "outputs": [
        {
          "name": "",
          "type": "address"
        }
      ],
      "payable": false,
      "stateMutability": "view",
      "type": "function"
    },
    {
      "constant": true,
      "inputs": [],
      "name": "getTotalDocuments",
      "outputs": [
        {
          "name": "_totalDocuments",
          "type": "uint256"
        }
      ],
      "payable": false,
      "stateMutability": "view",
      "type": "function"
    },
    {
      "constant": false,
      "inputs": [
        {
          "name": "newOwner",
          "type": "address"
        }
      ],
      "name": "transferOwnership",
      "outputs": [],
      "payable": false,
      "stateMutability": "nonpayable",
      "type": "function"
    },
    {
      "inputs": [],
      "payable": false,
      "stateMutability": "nonpayable",
      "type": "constructor"
    },
    {
      "anonymous": false,
      "inputs": [
        {
          "indexed": true,
          "name": "previousOwner",
          "type": "address"
        },
        {
          "indexed": true,
          "name": "newOwner",
          "type": "address"
        }
      ],
      "name": "OwnershipTransferred",
      "type": "event"
    }
  ],
  "bytecode": "0x6060604052341561000f57600080fd5b336000806101000a81548173ffffffffffffffffffffffffffffffffffffffff021916908373ffffffffffffffffffffffffffffffffffffffff160217905550600060018190555061193a806100666000396000f300606060405260043610610083576000357c0100000000000000000000000000000000000000000000000000000000900463ffffffff16806302bb28c3146100885780633f9b250a146101b75780635aa338f4146103d85780638b0a4ee1146105ce5780638da5cb5b1461068d578063e90e7ad4146106e2578063f2fde38b1461070b575b600080fd5b341561009357600080fd5b6101b5600480803590602001908201803590602001908080601f0160208091040260200160405190810160405280939291908181526020018383808284378201915050505050509190803590602001908201803590602001908080601f0160208091040260200160405190810160405280939291908181526020018383808284378201915050505050509190803590602001908201803590602001908080601f0160208091040260200160405190810160405280939291908181526020018383808284378201915050505050509190803590602001909190803590602001908201803590602001908080601f01602080910402602001604051908101604052809392919081815260200183838082843782019150505050505091905050610744565b005b34156101c257600080fd5b6101d86004808035906020019091905050610a3b565b6040518080602001806020018873ffffffffffffffffffffffffffffffffffffffff1673ffffffffffffffffffffffffffffffffffffffff168152602001806020018781526020018681526020018060200185810385528c818151815260200191508051906020019080838360005b83811015610262578082015181840152602081019050610247565b50505050905090810190601f16801561028f5780820380516001836020036101000a031916815260200191505b5085810384528b818151815260200191508051906020019080838360005b838110156102c85780820151818401526020810190506102ad565b50505050905090810190601f1680156102f55780820380516001836020036101000a031916815260200191505b50858103835289818151815260200191508051906020019080838360005b8381101561032e578082015181840152602081019050610313565b50505050905090810190601f16801561035b5780820380516001836020036101000a031916815260200191505b50858103825286818151815260200191508051906020019080838360005b83811015610394578082015181840152602081019050610379565b50505050905090810190601f1680156103c15780820380516001836020036101000a031916815260200191505b509b50505050505050505050505060405180910390f35b34156103e357600080fd5b610433600480803590602001908201803590602001908080601f01602080910402602001604051908101604052809392919081815260200183838082843782019150505050505091905050610e2a565b60405180888152602001806020018773ffffffffffffffffffffffffffffffffffffffff1673ffffffffffffffffffffffffffffffffffffffff168152602001806020018681526020018581526020018060200184810384528a818151815260200191508051906020019080838360005b838110156104bf5780820151818401526020810190506104a4565b50505050905090810190601f1680156104ec5780820380516001836020036101000a031916815260200191505b50848103835288818151815260200191508051906020019080838360005b8381101561052557808201518184015260208101905061050a565b50505050905090810190601f1680156105525780820380516001836020036101000a031916815260200191505b50848103825285818151815260200191508051906020019080838360005b8381101561058b578082015181840152602081019050610570565b50505050905090810190601f1680156105b85780820380516001836020036101000a031916815260200191505b509a505050505050505050505060405180910390f35b34156105d957600080fd5b61068b600480803573ffffffffffffffffffffffffffffffffffffffff1690602001909190803590602001908201803590602001908080601f0160208091040260200160405190810160405280939291908181526020018383808284378201915050505050509190803590602001908201803590602001908080601f01602080910402602001604051908101604052809392919081815260200183838082843782019150505050505091905050611335565b005b341561069857600080fd5b6106a061156d565b604051808273ffffffffffffffffffffffffffffffffffffffff1673ffffffffffffffffffffffffffffffffffffffff16815260200191505060405180910390f35b34156106ed57600080fd5b6106f5611592565b6040518082815260200191505060405180910390f35b341561071657600080fd5b610742600480803573ffffffffffffffffffffffffffffffffffffffff169060200190919050506115f7565b005b60008061074f61174c565b339250429150600180600082825401925050819055506101006040519081016040528060015481526020018981526020018881526020018473ffffffffffffffffffffffffffffffffffffffff16815260200187815260200183815260200186815260200185815250905080600260008573ffffffffffffffffffffffffffffffffffffffff1673ffffffffffffffffffffffffffffffffffffffff168152602001908152602001600020886040518082805190602001908083835b602083101515610830578051825260208201915060208101905060208303925061080b565b6001836020036101000a03801982511681845116808217855250505050505090500191505090815260200160405180910390206000820151816000015560208201518160010190805190602001906108899291906117c0565b5060408201518160020190805190602001906108a69291906117c0565b5060608201518160030160006101000a81548173ffffffffffffffffffffffffffffffffffffffff021916908373ffffffffffffffffffffffffffffffffffffffff160217905550608082015181600401908051906020019061090a9291906117c0565b5060a0820151816005015560c0820151816006015560e082015181600701908051906020019061093b9291906117c0565b509050508060056000600154815260200190815260200160002060008201518160000155602082015181600101908051906020019061097b9291906117c0565b5060408201518160020190805190602001906109989291906117c0565b5060608201518160030160006101000a81548173ffffffffffffffffffffffffffffffffffffffff021916908373ffffffffffffffffffffffffffffffffffffffff16021790555060808201518160040190805190602001906109fc9291906117c0565b5060a0820151816005015560c0820151816006015560e0820151816007019080519060200190610a2d9291906117c0565b509050505050505050505050565b610a43611840565b610a4b611840565b6000610a55611840565b600080610a60611840565b610a6861174c565b6000809054906101000a900473ffffffffffffffffffffffffffffffffffffffff1673ffffffffffffffffffffffffffffffffffffffff163373ffffffffffffffffffffffffffffffffffffffff16141515610ac357600080fd5b600560008a8152602001908152602001600020610100604051908101604052908160008201548152602001600182018054600181600116156101000203166002900480601f016020809104026020016040519081016040528092919081815260200182805460018160011615610100020316600290048015610b865780601f10610b5b57610100808354040283529160200191610b86565b820191906000526020600020905b815481529060010190602001808311610b6957829003601f168201915b50505050508152602001600282018054600181600116156101000203166002900480601f016020809104026020016040519081016040528092919081815260200182805460018160011615610100020316600290048015610c285780601f10610bfd57610100808354040283529160200191610c28565b820191906000526020600020905b815481529060010190602001808311610c0b57829003601f168201915b505050505081526020016003820160009054906101000a900473ffffffffffffffffffffffffffffffffffffffff1673ffffffffffffffffffffffffffffffffffffffff1673ffffffffffffffffffffffffffffffffffffffff168152602001600482018054600181600116156101000203166002900480601f016020809104026020016040519081016040528092919081815260200182805460018160011615610100020316600290048015610d205780601f10610cf557610100808354040283529160200191610d20565b820191906000526020600020905b815481529060010190602001808311610d0357829003601f168201915b505050505081526020016005820154815260200160068201548152602001600782018054600181600116156101000203166002900480601f016020809104026020016040519081016040528092919081815260200182805460018160011615610100020316600290048015610dd65780601f10610dab57610100808354040283529160200191610dd6565b820191906000526020600020905b815481529060010190602001808311610db957829003601f168201915b505050505081525050905080602001518160400151826060015183608001518460a001518560c001518660e00151869650859550839350809050975097509750975097509750975050919395979092949650565b6000610e34611840565b6000610e3e611840565b600080610e49611840565b6000610e5361174c565b896000600360003373ffffffffffffffffffffffffffffffffffffffff1673ffffffffffffffffffffffffffffffffffffffff168152602001908152602001600020826040518082805190602001908083835b602083101515610ecb5780518252602082019150602081019050602083039250610ea6565b6001836020036101000a0380198251168184511680821785525050505050509050019150509081526020016040518091039020905060016002811115610f0d57fe5b8160060160009054906101000a900460ff166002811115610f2a57fe5b141515610f3657600080fd5b339350600260008573ffffffffffffffffffffffffffffffffffffffff1673ffffffffffffffffffffffffffffffffffffffff1681526020019081526020016000208c6040518082805190602001908083835b602083101515610fae5780518252602082019150602081019050602083039250610f89565b6001836020036101000a0380198251168184511680821785525050505050509050019150509081526020016040518091039020610100604051908101604052908160008201548152602001600182018054600181600116156101000203166002900480601f0160208091040260200160405190810160405280929190818152602001828054600181600116156101000203166002900480156110915780601f1061106657610100808354040283529160200191611091565b820191906000526020600020905b81548152906001019060200180831161107457829003601f168201915b50505050508152602001600282018054600181600116156101000203166002900480601f0160208091040260200160405190810160405280929190818152602001828054600181600116156101000203166002900480156111335780601f1061110857610100808354040283529160200191611133565b820191906000526020600020905b81548152906001019060200180831161111657829003601f168201915b505050505081526020016003820160009054906101000a900473ffffffffffffffffffffffffffffffffffffffff1673ffffffffffffffffffffffffffffffffffffffff1673ffffffffffffffffffffffffffffffffffffffff168152602001600482018054600181600116156101000203166002900480601f01602080910402602001604051908101604052809291908181526020018280546001816001161561010002031660029004801561122b5780601f106112005761010080835404028352916020019161122b565b820191906000526020600020905b81548152906001019060200180831161120e57829003601f168201915b505050505081526020016005820154815260200160068201548152602001600782018054600181600116156101000203166002900480601f0160208091040260200160405190810160405280929190818152602001828054600181600116156101000203166002900480156112e15780601f106112b6576101008083540402835291602001916112e1565b820191906000526020600020905b8154815290600101906020018083116112c457829003601f168201915b505050505081525050925082600001518360200151846060015185608001518660a001518760c001518860e001518595508393508090509a509a509a509a509a509a509a5050505050919395979092949650565b600061133f611854565b33915060e0604051908101604052808673ffffffffffffffffffffffffffffffffffffffff1681526020018581526020018373ffffffffffffffffffffffffffffffffffffffff1681526020018481526020014281526020016236ee8042018152602001600060028111156113b057fe5b815250905080600360008473ffffffffffffffffffffffffffffffffffffffff1673ffffffffffffffffffffffffffffffffffffffff168152602001908152602001600020856040518082805190602001908083835b60208310151561142b5780518252602082019150602081019050602083039250611406565b6001836020036101000a038019825116818451168082178552505050505050905001915050908152602001604051809103902060008201518160000160006101000a81548173ffffffffffffffffffffffffffffffffffffffff021916908373ffffffffffffffffffffffffffffffffffffffff16021790555060208201518160010190805190602001906114c19291906117c0565b5060408201518160020160006101000a81548173ffffffffffffffffffffffffffffffffffffffff021916908373ffffffffffffffffffffffffffffffffffffffff16021790555060608201518160030190805190602001906115259291906117c0565b506080820151816004015560a0820151816005015560c08201518160060160006101000a81548160ff0219169083600281111561155e57fe5b02179055509050505050505050565b6000809054906101000a900473ffffffffffffffffffffffffffffffffffffffff1681565b60008060009054906101000a900473ffffffffffffffffffffffffffffffffffffffff1673ffffffffffffffffffffffffffffffffffffffff163373ffffffffffffffffffffffffffffffffffffffff161415156115ef57600080fd5b600154905090565b6000809054906101000a900473ffffffffffffffffffffffffffffffffffffffff1673ffffffffffffffffffffffffffffffffffffffff163373ffffffffffffffffffffffffffffffffffffffff1614151561165257600080fd5b600073ffffffffffffffffffffffffffffffffffffffff168173ffffffffffffffffffffffffffffffffffffffff161415151561168e57600080fd5b8073ffffffffffffffffffffffffffffffffffffffff166000809054906101000a900473ffffffffffffffffffffffffffffffffffffffff1673ffffffffffffffffffffffffffffffffffffffff167f8be0079c531659141344cd1fd0a4f28419497f9722a3daafe3b4186f6b6457e060405160405180910390a3806000806101000a81548173ffffffffffffffffffffffffffffffffffffffff021916908373ffffffffffffffffffffffffffffffffffffffff16021790555050565b61010060405190810160405280600081526020016117686118d5565b81526020016117756118d5565b8152602001600073ffffffffffffffffffffffffffffffffffffffff16815260200161179f6118d5565b815260200160008152602001600081526020016117ba6118d5565b81525090565b828054600181600116156101000203166002900490600052602060002090601f016020900481019282601f1061180157805160ff191683800117855561182f565b8280016001018555821561182f579182015b8281111561182e578251825591602001919060010190611813565b5b50905061183c91906118e9565b5090565b602060405190810160405280600081525090565b60e060405190810160405280600073ffffffffffffffffffffffffffffffffffffffff1681526020016118856118d5565b8152602001600073ffffffffffffffffffffffffffffffffffffffff1681526020016118af6118d5565b81526020016000815260200160008152602001600060028111156118cf57fe5b81525090565b602060405190810160405280600081525090565b61190b91905b808211156119075760008160009055506001016118ef565b5090565b905600a165627a7a7230582057d524b8dcd750fd61f06e26e595f315b97b6fac531b6c44fc4fddbc9ba82a5b0029",
  "source": "pragma solidity ^0.4.18;\n\nimport 'zeppelin-solidity/contracts/ownership/Ownable.sol';\n\ncontract MnemonicVault is Ownable {\n\n  struct Document {\n    uint id;\n    string name;\n    string key;  \n    address issuer;\n    string issuerName;\n    uint issueTime;\n    uint expirationTime;\n    string offchainUrl;\n  }\n\n  struct Claim {\n    address claimer;\n    string claimerName;\n    uint claimTime;\n  }\n\n  enum GrantRequestStatus { PENDING, GRANTED, REJECTED }\n\n  struct GrantRequest {\n    address issuer;\n    string key;\n    address requestor;\n    string requestorName;\n    uint requestTime;\n    uint requestExpirationTime;\n    GrantRequestStatus status;\n  }\n\n  uint docIndex;\n  mapping(address => mapping(string => Document)) documents;\n  mapping(address => mapping(string => GrantRequest)) grants;\n  mapping(address => mapping(string => Claim)) claims;  \n  mapping(uint => Document) allDocuments;\n\n\n  modifier onlyWithGrant(string _key) {\n    GrantRequest storage grant = grants[msg.sender][_key];\n    require(grant.status == GrantRequestStatus.GRANTED);\n    _;\n  }\n\n\n  function MnemonicVault() public {\n    docIndex = 0;\n  }\n\n\n  function getTotalDocuments() view\n      public\n      onlyOwner()\n      returns (uint _totalDocuments)\n  {\n    return docIndex;\n  }\n\n\n  function getDocument(uint _id) view\n      public\n      onlyOwner()\n      returns (\n        string _name,\n    \tstring _key, \n    \taddress _issuer,\n    \tstring _issuerName,\n    \tuint _issueTime,\n    \tuint _expirationTime,\n    \tstring _offchainUrl)\n  {\n    Document memory doc = allDocuments[_id];\n    return (doc.name,\n    \t    doc.key,\n\t    doc.issuer,\n\t    doc.issuerName,\n\t    doc.issueTime,\n\t    doc.expirationTime,\n\t    doc.offchainUrl);\n  }\n\n\n  function retrieveDocument(string _key) view\n      public\n      onlyWithGrant(_key)\n      returns (\n        uint _id,\n        string _name,\n    \taddress _issuer,\n    \tstring _issuerName,\n    \tuint _issueTime,\n    \tuint _expirationTime,\n    \tstring _offchainUrl)\n  {\n    address issuer = msg.sender;\n    Document memory doc = documents[issuer][_key];\n    return (doc.id,\n            doc.name,\n\t    doc.issuer,\n\t    doc.issuerName,\n\t    doc.issueTime,\n\t    doc.expirationTime,\n\t    doc.offchainUrl);\n  }\n\n\n  function grant(\n      address _issuer,\n      string _key,\n      string _requestorName)\n      public\n  {\n    address requestor = msg.sender;\n    GrantRequest memory request = GrantRequest(\n      _issuer,\n      _key,\n      requestor,\n      _requestorName,\n      now,\n      now + 60 * 60 * 1000,\n      GrantRequestStatus.PENDING);\n    grants[requestor][_key] = request;\n  }\n\n\n  function addDocument(\n        string _name,\n    \tstring _key,\n    \tstring _issuerName,\n    \tuint _expirationTime,\n    \tstring _offchainUrl)\n\tpublic\n  {\n    address issuer = msg.sender;\n    uint issueTime = now;\n    docIndex += 1;\n    \n    Document memory doc = Document(\n      docIndex,\n      _name,\n      _key,\n      issuer,\n      _issuerName,\n      issueTime,\n      _expirationTime,\n      _offchainUrl);\n\n    documents[issuer][_key] = doc;\n    allDocuments[docIndex] = doc;    \n  }\n\n\n\n}",
  "sourcePath": "/Users/victor/projects/HACKATON/mnemonic-solidity/contracts/MnemonicVault.sol",
  "compiler": {
    "name": "solc",
    "version": "0.4.18+commit.9cf6e910.Emscripten.clang"
  },
  "schemaVersion": "1.0.1",
  "updatedAt": "2018-01-20T14:07:49.302Z"
}